S0190000436F6E74726F6C5F536D617274486F6D652E737265633B
S11300000C942A000C9447000C9447000C9447006D
S11300100C9447000C9447000C9447000C94470040
S11300200C9447000C9447000C9447000C94470030
S11300300C94A5000C94CF000C9403010C942A0199
S11300400C9449000C9447000C9447000C9447000E
S11300500C94470011241FBECFE5D8E0DEBFCDBF0E
S113006010E0A0E6B0E0EAEEF2E002C005900D92E6
S1130070AE36B107D9F720E0AEE6B0E001C01D927C
S1130080AB3EB207E1F70E9472010C9473010C9429
S113009000001F920F920FB60F9211242F933F93DB
S11300A04F935F936F937F938F939F93AF93BF937C
S11300B0EF93FF9384B195B1E0916E00F0E0EE0F01
S11300C0FF1F2091E1003091E200E20FF31F9183C2
S11300D08083E0916E00F0E0EE0FFF1FE752FF4FC8
S11300E00190F081E02D309709F0099580916E0020
S11300F08F5F843019F080936E0002C010926E00FE
S113010087B1E091D800F0E0EE0FFF1FE05AFF4FF7
S113011090916E000190F081E02DE90FF11D807E39
S11301209081892B87B9369AFF91EF91BF91AF9156
S11301309F918F917F916F915F914F913F912F91FB
S11301400F900FBE0F901F9018951F920F920FB62D
S11301500F9211242F933F934F935F936F937F9349
S11301608F939F93AF93BF93EF93FF93E091E3003B
S1130170F091E4000995FF91EF91BF91AF919F91A8
S11301808F917F916F915F914F913F912F910F903C
S11301900FBE0F901F901895579A8CB908951F920F
S11301A00F920FB60F9211242F933F934F935F93A7
S11301B06F937F938F939F93AF93BF93EF93FF932B
S11301C09CB19093730080916F00E82FF0E0EC589D
S11301D0FF4F90838F5F80936F00E091E900F0916F
S11301E0EA000995FF91EF91BF91AF919F918F9193
S11301F07F916F915F914F913F912F910F900FBE1F
S11302000F901F9018951F920F920FB60F92112402
S11302102F933F934F935F936F937F938F939F930A
S1130220AF93BF93EF93FF93E091E500F091E60065
S11302300995FF91EF91BF91AF919F918F917F911C
S11302406F915F914F913F912F910F900FBE0F903F
S11302501F9018951F920F920FB60F9211242F938F
S11302603F934F935F936F937F938F939F93AF933A
S1130270BF93CF93EF93FF93809172008130D9F4B1
S1130280C0916C00E0917000F0917100EC0FF11DD1
S113029080810E94CC00CF5FC0936C00E09170001D
S11302A0F0917100EC0FF11D8081811104C00E9456
S11302B0CC0010927200E091E700F091E8000995FB
S11302C0FF91EF91CF91BF91AF919F918F917F91CA
S11302D06F915F914F913F912F910F900FBE0F90AF
S10D02E01F901895FFCFF894FFCF8C
S11102EA680064000203060700010405010019
S9030000FC
